{
  "contractName": "SupplyChain",
  "abi": [
    {
      "inputs": [],
      "stateMutability": "nonpayable",
      "type": "constructor"
    },
    {
      "inputs": [
        {
          "internalType": "uint256",
          "name": "",
          "type": "uint256"
        }
      ],
      "name": "DIS",
      "outputs": [
        {
          "internalType": "address",
          "name": "addr",
          "type": "address"
        },
        {
          "internalType": "uint256",
          "name": "id",
          "type": "uint256"
        },
        {
          "internalType": "string",
          "name": "name",
          "type": "string"
        },
        {
          "internalType": "string",
          "name": "place",
          "type": "string"
        }
      ],
      "stateMutability": "view",
      "type": "function"
    },
    {
      "inputs": [
        {
          "internalType": "uint256",
          "name": "",
          "type": "uint256"
        }
      ],
      "name": "MAN",
      "outputs": [
        {
          "internalType": "address",
          "name": "addr",
          "type": "address"
        },
        {
          "internalType": "uint256",
          "name": "id",
          "type": "uint256"
        },
        {
          "internalType": "string",
          "name": "name",
          "type": "string"
        },
        {
          "internalType": "string",
          "name": "place",
          "type": "string"
        }
      ],
      "stateMutability": "view",
      "type": "function"
    },
    {
      "inputs": [
        {
          "internalType": "uint256",
          "name": "",
          "type": "uint256"
        },
        {
          "internalType": "uint256",
          "name": "",
          "type": "uint256"
        }
      ],
      "name": "MedicineProcessingHistory",
      "outputs": [
        {
          "internalType": "address",
          "name": "user",
          "type": "address"
        },
        {
          "internalType": "enum SupplyChain.STAGE",
          "name": "stage",
          "type": "uint8"
        },
        {
          "internalType": "uint256",
          "name": "timestamp",
          "type": "uint256"
        },
        {
          "internalType": "address",
          "name": "receiver",
          "type": "address"
        },
        {
          "internalType": "uint256",
          "name": "quantity",
          "type": "uint256"
        }
      ],
      "stateMutability": "view",
      "type": "function"
    },
    {
      "inputs": [
        {
          "internalType": "uint256",
          "name": "",
          "type": "uint256"
        }
      ],
      "name": "MedicineStockBasic",
      "outputs": [
        {
          "internalType": "uint256",
          "name": "id",
          "type": "uint256"
        },
        {
          "internalType": "string",
          "name": "name",
          "type": "string"
        },
        {
          "internalType": "string",
          "name": "description",
          "type": "string"
        },
        {
          "internalType": "uint256",
          "name": "RMSid",
          "type": "uint256"
        },
        {
          "internalType": "uint256",
          "name": "MANid",
          "type": "uint256"
        },
        {
          "internalType": "uint256",
          "name": "DISid",
          "type": "uint256"
        },
        {
          "internalType": "uint256",
          "name": "RETid",
          "type": "uint256"
        },
        {
          "internalType": "address",
          "name": "receiver",
          "type": "address"
        },
        {
          "internalType": "enum SupplyChain.STAGE",
          "name": "stage",
          "type": "uint8"
        }
      ],
      "stateMutability": "view",
      "type": "function"
    },
    {
      "inputs": [
        {
          "internalType": "uint256",
          "name": "",
          "type": "uint256"
        }
      ],
      "name": "MedicineStockDetails",
      "outputs": [
        {
          "internalType": "uint256",
          "name": "quantity",
          "type": "uint256"
        },
        {
          "internalType": "uint256",
          "name": "price",
          "type": "uint256"
        },
        {
          "internalType": "uint256",
          "name": "manufacturingDate",
          "type": "uint256"
        },
        {
          "internalType": "uint256",
          "name": "expiryDate",
          "type": "uint256"
        }
      ],
      "stateMutability": "view",
      "type": "function"
    },
    {
      "inputs": [],
      "name": "Owner",
      "outputs": [
        {
          "internalType": "address",
          "name": "",
          "type": "address"
        }
      ],
      "stateMutability": "view",
      "type": "function"
    },
    {
      "inputs": [
        {
          "internalType": "uint256",
          "name": "",
          "type": "uint256"
        }
      ],
      "name": "RET",
      "outputs": [
        {
          "internalType": "address",
          "name": "addr",
          "type": "address"
        },
        {
          "internalType": "uint256",
          "name": "id",
          "type": "uint256"
        },
        {
          "internalType": "string",
          "name": "name",
          "type": "string"
        },
        {
          "internalType": "string",
          "name": "place",
          "type": "string"
        }
      ],
      "stateMutability": "view",
      "type": "function"
    },
    {
      "inputs": [
        {
          "internalType": "uint256",
          "name": "",
          "type": "uint256"
        }
      ],
      "name": "RMS",
      "outputs": [
        {
          "internalType": "address",
          "name": "addr",
          "type": "address"
        },
        {
          "internalType": "uint256",
          "name": "id",
          "type": "uint256"
        },
        {
          "internalType": "string",
          "name": "name",
          "type": "string"
        },
        {
          "internalType": "string",
          "name": "place",
          "type": "string"
        }
      ],
      "stateMutability": "view",
      "type": "function"
    },
    {
      "inputs": [],
      "name": "disCtr",
      "outputs": [
        {
          "internalType": "uint256",
          "name": "",
          "type": "uint256"
        }
      ],
      "stateMutability": "view",
      "type": "function"
    },
    {
      "inputs": [],
      "name": "manCtr",
      "outputs": [
        {
          "internalType": "uint256",
          "name": "",
          "type": "uint256"
        }
      ],
      "stateMutability": "view",
      "type": "function"
    },
    {
      "inputs": [],
      "name": "medicineCtr",
      "outputs": [
        {
          "internalType": "uint256",
          "name": "",
          "type": "uint256"
        }
      ],
      "stateMutability": "view",
      "type": "function"
    },
    {
      "inputs": [],
      "name": "retCtr",
      "outputs": [
        {
          "internalType": "uint256",
          "name": "",
          "type": "uint256"
        }
      ],
      "stateMutability": "view",
      "type": "function"
    },
    {
      "inputs": [],
      "name": "rmsCtr",
      "outputs": [
        {
          "internalType": "uint256",
          "name": "",
          "type": "uint256"
        }
      ],
      "stateMutability": "view",
      "type": "function"
    },
    {
      "inputs": [
        {
          "internalType": "uint256",
          "name": "_medicineID",
          "type": "uint256"
        }
      ],
      "name": "showStage",
      "outputs": [
        {
          "internalType": "string",
          "name": "",
          "type": "string"
        }
      ],
      "stateMutability": "view",
      "type": "function"
    },
    {
      "inputs": [
        {
          "internalType": "address",
          "name": "_manufacturer",
          "type": "address"
        }
      ],
      "name": "getManufacturerMedicine",
      "outputs": [
        {
          "internalType": "uint256[]",
          "name": "",
          "type": "uint256[]"
        },
        {
          "internalType": "uint256[]",
          "name": "",
          "type": "uint256[]"
        }
      ],
      "stateMutability": "view",
      "type": "function"
    },
    {
      "inputs": [
        {
          "internalType": "address",
          "name": "_distributor",
          "type": "address"
        }
      ],
      "name": "getDistributorMedicine",
      "outputs": [
        {
          "internalType": "uint256[]",
          "name": "",
          "type": "uint256[]"
        },
        {
          "internalType": "uint256[]",
          "name": "",
          "type": "uint256[]"
        }
      ],
      "stateMutability": "view",
      "type": "function"
    },
    {
      "inputs": [
        {
          "internalType": "address",
          "name": "_retailer",
          "type": "address"
        }
      ],
      "name": "getRetailerMedicine",
      "outputs": [
        {
          "internalType": "uint256[]",
          "name": "",
          "type": "uint256[]"
        },
        {
          "internalType": "uint256[]",
          "name": "",
          "type": "uint256[]"
        }
      ],
      "stateMutability": "view",
      "type": "function"
    },
    {
      "inputs": [
        {
          "internalType": "uint256",
          "name": "_medicineID",
          "type": "uint256"
        }
      ],
      "name": "getMedicineDetails",
      "outputs": [
        {
          "internalType": "string",
          "name": "name",
          "type": "string"
        },
        {
          "internalType": "string",
          "name": "description",
          "type": "string"
        },
        {
          "internalType": "uint256",
          "name": "quantity",
          "type": "uint256"
        },
        {
          "internalType": "uint256",
          "name": "price",
          "type": "uint256"
        },
        {
          "internalType": "uint256",
          "name": "manufacturingDate",
          "type": "uint256"
        },
        {
          "internalType": "uint256",
          "name": "expiryDate",
          "type": "uint256"
        },
        {
          "internalType": "string",
          "name": "currentStage",
          "type": "string"
        }
      ],
      "stateMutability": "view",
      "type": "function"
    },
    {
      "inputs": [
        {
          "internalType": "address",
          "name": "_address",
          "type": "address"
        },
        {
          "internalType": "string",
          "name": "_name",
          "type": "string"
        },
        {
          "internalType": "string",
          "name": "_place",
          "type": "string"
        }
      ],
      "name": "addRMS",
      "outputs": [],
      "stateMutability": "nonpayable",
      "type": "function"
    },
    {
      "inputs": [
        {
          "internalType": "address",
          "name": "_address",
          "type": "address"
        },
        {
          "internalType": "string",
          "name": "_name",
          "type": "string"
        },
        {
          "internalType": "string",
          "name": "_place",
          "type": "string"
        }
      ],
      "name": "addManufacturer",
      "outputs": [],
      "stateMutability": "nonpayable",
      "type": "function"
    },
    {
      "inputs": [
        {
          "internalType": "address",
          "name": "_address",
          "type": "address"
        },
        {
          "internalType": "string",
          "name": "_name",
          "type": "string"
        },
        {
          "internalType": "string",
          "name": "_place",
          "type": "string"
        }
      ],
      "name": "addDistributor",
      "outputs": [],
      "stateMutability": "nonpayable",
      "type": "function"
    },
    {
      "inputs": [
        {
          "internalType": "address",
          "name": "_address",
          "type": "address"
        },
        {
          "internalType": "string",
          "name": "_name",
          "type": "string"
        },
        {
          "internalType": "string",
          "name": "_place",
          "type": "string"
        }
      ],
      "name": "addRetailer",
      "outputs": [],
      "stateMutability": "nonpayable",
      "type": "function"
    },
    {
      "inputs": [
        {
          "internalType": "uint256",
          "name": "_medicineID",
          "type": "uint256"
        },
        {
          "internalType": "address",
          "name": "_receiver",
          "type": "address"
        },
        {
          "internalType": "uint256",
          "name": "_quantity",
          "type": "uint256"
        }
      ],
      "name": "RMSsupply",
      "outputs": [],
      "stateMutability": "nonpayable",
      "type": "function"
    },
    {
      "inputs": [
        {
          "internalType": "uint256",
          "name": "_medicineID",
          "type": "uint256"
        },
        {
          "internalType": "address",
          "name": "_receiver",
          "type": "address"
        },
        {
          "internalType": "uint256",
          "name": "_quantity",
          "type": "uint256"
        }
      ],
      "name": "Manufacturing",
      "outputs": [],
      "stateMutability": "nonpayable",
      "type": "function"
    },
    {
      "inputs": [
        {
          "internalType": "uint256",
          "name": "_medicineID",
          "type": "uint256"
        },
        {
          "internalType": "address",
          "name": "_receiver",
          "type": "address"
        },
        {
          "internalType": "uint256",
          "name": "_quantity",
          "type": "uint256"
        }
      ],
      "name": "Distribute",
      "outputs": [],
      "stateMutability": "nonpayable",
      "type": "function"
    },
    {
      "inputs": [
        {
          "internalType": "uint256",
          "name": "_medicineID",
          "type": "uint256"
        },
        {
          "internalType": "address",
          "name": "_receiver",
          "type": "address"
        },
        {
          "internalType": "uint256",
          "name": "_quantity",
          "type": "uint256"
        }
      ],
      "name": "Retail",
      "outputs": [],
      "stateMutability": "nonpayable",
      "type": "function"
    },
    {
      "inputs": [
        {
          "internalType": "uint256",
          "name": "_medicineID",
          "type": "uint256"
        },
        {
          "internalType": "uint256",
          "name": "_quantity",
          "type": "uint256"
        }
      ],
      "name": "sold",
      "outputs": [],
      "stateMutability": "nonpayable",
      "type": "function"
    },
    {
      "inputs": [
        {
          "internalType": "string",
          "name": "_name",
          "type": "string"
        },
        {
          "internalType": "string",
          "name": "_description",
          "type": "string"
        },
        {
          "internalType": "uint256",
          "name": "_quantity",
          "type": "uint256"
        },
        {
          "internalType": "uint256",
          "name": "_price",
          "type": "uint256"
        },
        {
          "internalType": "uint256",
          "name": "_manufacturingDate",
          "type": "uint256"
        },
        {
          "internalType": "uint256",
          "name": "_expiryDate",
          "type": "uint256"
        }
      ],
      "name": "addMedicine",
      "outputs": [],
      "stateMutability": "nonpayable",
      "type": "function"
    },
    {
      "inputs": [
        {
          "internalType": "uint256",
          "name": "_medicineID",
          "type": "uint256"
        }
      ],
      "name": "getMedicineProcessingHistory",
      "outputs": [
        {
          "components": [
            {
              "internalType": "address",
              "name": "user",
              "type": "address"
            },
            {
              "internalType": "enum SupplyChain.STAGE",
              "name": "stage",
              "type": "uint8"
            },
            {
              "internalType": "uint256",
              "name": "timestamp",
              "type": "uint256"
            },
            {
              "internalType": "address",
              "name": "receiver",
              "type": "address"
            },
            {
              "internalType": "uint256",
              "name": "quantity",
              "type": "uint256"
            }
          ],
          "internalType": "struct SupplyChain.ProcessingEntry[]",
          "name": "",
          "type": "tuple[]"
        }
      ],
      "stateMutability": "view",
      "type": "function"
    }
  ],
  "bytecode": "0x60806040525f6001555f6002555f6003555f6004555f600555348015610023575f80fd5b50335f806101000a81548173ffffffffffffffffffffffffffffffffffffffff021916908373ffffffffffffffffffffffffffffffffffffffff160217905550614272806100705f395ff3fe608060405234801561000f575f80fd5b50600436106101cd575f3560e01c806361731b0211610102578063a95f29d9116100a0578063dd2863981161006f578063dd2863981461057d578063e101a2e01461059b578063eef5cb40146105cb578063f7aece7c146105fe576101cd565b8063a95f29d9146104f2578063b4a99a4e14610510578063c967ac1b1461052e578063cc4030691461054a576101cd565b80637e43d94d116100dc5780637e43d94d1461045457806382e9bf9814610472578063857ddb04146104a6578063975fbbb1146104c2576101cd565b806361731b02146103cf5780636a992c9f146104005780637b9a97561461041c576101cd565b80632f5f957c1161016f5780633e85b9cb116101495780633e85b9cb14610331578063438e9c4d146103625780634b3efd071461038057806359bf286f1461039c576101cd565b80632f5f957c146102ae5780632fe97ed4146102e45780633b5fa97314610315576101cd565b80632a4af440116101ab5780632a4af440146102255780632b0187ac146102415780632b70b08d146102745780632bdb2e6b14610290576101cd565b806305e9c1ff146101d157806318811bcb146101ed5780631a249af914610209575b5f80fd5b6101eb60048036038101906101e6919061357a565b610631565b005b61020760048036038101906102029190613612565b61087e565b005b610223600480360381019061021e919061379e565b610b19565b005b61023f600480360381019061023a919061385f565b610edf565b005b61025b600480360381019061025691906138e7565b61101a565b60405161026b94939291906139aa565b60405180910390f35b61028e6004803603810190610289919061385f565b611171565b005b6102986112ac565b6040516102a591906139fb565b60405180910390f35b6102c860048036038101906102c391906138e7565b6112b2565b6040516102db9796959493929190613a14565b60405180910390f35b6102fe60048036038101906102f99190613a96565b61147f565b60405161030c929190613b78565b60405180910390f35b61032f600480360381019061032a9190613612565b61173a565b005b61034b60048036038101906103469190613a96565b6119d5565b604051610359929190613b78565b60405180910390f35b61036a611c90565b60405161037791906139fb565b60405180910390f35b61039a60048036038101906103959190613612565b611c96565b005b6103b660048036038101906103b191906138e7565b611f31565b6040516103c694939291906139aa565b60405180910390f35b6103e960048036038101906103e49190613a96565b612088565b6040516103f7929190613b78565b60405180910390f35b61041a6004803603810190610415919061385f565b612343565b005b610436600480360381019061043191906138e7565b61247e565b60405161044b99989796959493929190613c20565b60405180910390f35b61045c612600565b60405161046991906139fb565b60405180910390f35b61048c6004803603810190610487919061357a565b612606565b60405161049d959493929190613cb9565b60405180910390f35b6104c060048036038101906104bb919061385f565b61269c565b005b6104dc60048036038101906104d791906138e7565b6127d7565b6040516104e99190613e36565b60405180910390f35b6104fa612954565b60405161050791906139fb565b60405180910390f35b61051861295a565b6040516105259190613e56565b60405180910390f35b61054860048036038101906105439190613612565b61297d565b005b610564600480360381019061055f91906138e7565b612c17565b60405161057494939291906139aa565b60405180910390f35b610585612d6e565b60405161059291906139fb565b60405180910390f35b6105b560048036038101906105b091906138e7565b612d74565b6040516105c29190613e6f565b60405180910390f35b6105e560048036038101906105e091906138e7565b6130c3565b6040516105f594939291906139aa565b60405180910390f35b610618600480360381019061061391906138e7565b61321a565b6040516106289493929190613e8f565b60405180910390f35b5f8211801561064257506001548211155b61064a575f80fd5b5f61065433613246565b90505f8111610661575f80fd5b60065f8481526020019081526020015f20600601548114610680575f80fd5b6004600581111561069457610693613bad565b5b60065f8581526020019081526020015f2060070160149054906101000a900460ff1660058111156106c8576106c7613bad565b5b146106d1575f80fd5b600560065f8581526020019081526020015f2060070160146101000a81548160ff0219169083600581111561070957610708613bad565b5b021790555060085f8481526020019081526020015f206040518060a001604052803373ffffffffffffffffffffffffffffffffffffffff16815260200160058081111561075957610758613bad565b5b81526020014281526020015f73ffffffffffffffffffffffffffffffffffffffff16815260200184815250908060018154018082558091505060019003905f5260205f2090600402015f909190919091505f820151815f015f6101000a81548173ffffffffffffffffffffffffffffffffffffffff021916908373ffffffffffffffffffffffffffffffffffffffff1602179055506020820151815f0160146101000a81548160ff0219169083600581111561081857610817613bad565b5b0217905550604082015181600101556060820151816002015f6101000a81548173ffffffffffffffffffffffffffffffffffffffff021916908373ffffffffffffffffffffffffffffffffffffffff160217905550608082015181600301555050505050565b5f8311801561088f57506001548311155b610897575f80fd5b5f6108a133613302565b90505f81116108ae575f80fd5b600260058111156108c2576108c1613bad565b5b60065f8681526020019081526020015f2060070160149054906101000a900460ff1660058111156108f6576108f5613bad565b5b146108ff575f80fd5b8060065f8681526020019081526020015f20600501819055508260065f8681526020019081526020015f206007015f6101000a81548173ffffffffffffffffffffffffffffffffffffffff021916908373ffffffffffffffffffffffffffffffffffffffff160217905550600360065f8681526020019081526020015f2060070160146101000a81548160ff021916908360058111156109a2576109a1613bad565b5b021790555060085f8581526020019081526020015f206040518060a001604052803373ffffffffffffffffffffffffffffffffffffffff168152602001600360058111156109f3576109f2613bad565b5b81526020014281526020018573ffffffffffffffffffffffffffffffffffffffff16815260200184815250908060018154018082558091505060019003905f5260205f2090600402015f909190919091505f820151815f015f6101000a81548173ffffffffffffffffffffffffffffffffffffffff021916908373ffffffffffffffffffffffffffffffffffffffff1602179055506020820151815f0160146101000a81548160ff02191690836005811115610ab257610ab1613bad565b5b0217905550604082015181600101556060820151816002015f6101000a81548173ffffffffffffffffffffffffffffffffffffffff021916908373ffffffffffffffffffffffffffffffffffffffff16021790555060808201518160030155505050505050565b5f8054906101000a900473ffffffffffffffffffffffffffffffffffffffff1673ffffffffffffffffffffffffffffffffffffffff163373ffffffffffffffffffffffffffffffffffffffff1614610b6f575f80fd5b5f600254118015610b8157505f600354115b8015610b8e57505f600454115b8015610b9b57505f600554115b610ba3575f80fd5b60015f815480929190610bb590613eff565b919050555060405180610120016040528060015481526020018781526020018681526020015f81526020015f81526020015f81526020015f81526020015f73ffffffffffffffffffffffffffffffffffffffff1681526020015f6005811115610c2157610c20613bad565b5b81525060065f60015481526020019081526020015f205f820151815f01556020820151816001019081610c549190614140565b506040820151816002019081610c6a9190614140565b50606082015181600301556080820151816004015560a0820151816005015560c0820151816006015560e0820151816007015f6101000a81548173ffffffffffffffffffffffffffffffffffffffff021916908373ffffffffffffffffffffffffffffffffffffffff1602179055506101008201518160070160146101000a81548160ff02191690836005811115610d0557610d04613bad565b5b021790555090505060405180608001604052808581526020018481526020018381526020018281525060075f60015481526020019081526020015f205f820151815f015560208201518160010155604082015181600201556060820151816003015590505060085f60015481526020019081526020015f206040518060a001604052803373ffffffffffffffffffffffffffffffffffffffff1681526020015f6005811115610db757610db6613bad565b5b81526020014281526020015f73ffffffffffffffffffffffffffffffffffffffff16815260200186815250908060018154018082558091505060019003905f5260205f2090600402015f909190919091505f820151815f015f6101000a81548173ffffffffffffffffffffffffffffffffffffffff021916908373ffffffffffffffffffffffffffffffffffffffff1602179055506020820151815f0160146101000a81548160ff02191690836005811115610e7657610e75613bad565b5b0217905550604082015181600101556060820151816002015f6101000a81548173ffffffffffffffffffffffffffffffffffffffff021916908373ffffffffffffffffffffffffffffffffffffffff160217905550608082015181600301555050505050505050565b5f8054906101000a900473ffffffffffffffffffffffffffffffffffffffff1673ffffffffffffffffffffffffffffffffffffffff163373ffffffffffffffffffffffffffffffffffffffff1614610f35575f80fd5b60045f815480929190610f4790613eff565b919050555060405180608001604052808473ffffffffffffffffffffffffffffffffffffffff168152602001600454815260200183815260200182815250600b5f60045481526020019081526020015f205f820151815f015f6101000a81548173ffffffffffffffffffffffffffffffffffffffff021916908373ffffffffffffffffffffffffffffffffffffffff160217905550602082015181600101556040820151816002019081610ffb9190614140565b5060608201518160030190816110119190614140565b50905050505050565b600b602052805f5260405f205f91509050805f015f9054906101000a900473ffffffffffffffffffffffffffffffffffffffff169080600101549080600201805461106490613f73565b80601f016020809104026020016040519081016040528092919081815260200182805461109090613f73565b80156110db5780601f106110b2576101008083540402835291602001916110db565b820191905f5260205f20905b8154815290600101906020018083116110be57829003601f168201915b5050505050908060030180546110f090613f73565b80601f016020809104026020016040519081016040528092919081815260200182805461111c90613f73565b80156111675780601f1061113e57610100808354040283529160200191611167565b820191905f5260205f20905b81548152906001019060200180831161114a57829003601f168201915b5050505050905084565b5f8054906101000a900473ffffffffffffffffffffffffffffffffffffffff1673ffffffffffffffffffffffffffffffffffffffff163373ffffffffffffffffffffffffffffffffffffffff16146111c7575f80fd5b60025f8154809291906111d990613eff565b919050555060405180608001604052808473ffffffffffffffffffffffffffffffffffffffff16815260200160025481526020018381526020018281525060095f60025481526020019081526020015f205f820151815f015f6101000a81548173ffffffffffffffffffffffffffffffffffffffff021916908373ffffffffffffffffffffffffffffffffffffffff16021790555060208201518160010155604082015181600201908161128d9190614140565b5060608201518160030190816112a39190614140565b50905050505050565b60045481565b6060805f805f8060605f881180156112cc57506001548811155b6112d4575f80fd5b60065f8981526020019081526020015f2060010180546112f390613f73565b80601f016020809104026020016040519081016040528092919081815260200182805461131f90613f73565b801561136a5780601f106113415761010080835404028352916020019161136a565b820191905f5260205f20905b81548152906001019060200180831161134d57829003601f168201915b5050505050965060065f8981526020019081526020015f20600201805461139090613f73565b80601f01602080910402602001604051908101604052809291908181526020018280546113bc90613f73565b80156114075780601f106113de57610100808354040283529160200191611407565b820191905f5260205f20905b8154815290600101906020018083116113ea57829003601f168201915b5050505050955060075f8981526020019081526020015f205f0154945060075f8981526020019081526020015f2060010154935060075f8981526020019081526020015f2060020154925060075f8981526020019081526020015f2060030154915061147288612d74565b9050919395979092949650565b6060805f60015467ffffffffffffffff81111561149f5761149e61367a565b5b6040519080825280602002602001820160405280156114cd5781602001602082028036833780820191505090505b5090505f60015467ffffffffffffffff8111156114ed576114ec61367a565b5b60405190808252806020026020018201604052801561151b5781602001602082028036833780820191505090505b5090505f805f600190505b6001548111611724575f60065f8381526020019081526020015f2060050154141580156115c457508773ffffffffffffffffffffffffffffffffffffffff16600b5f60065f8581526020019081526020015f206005015481526020019081526020015f205f015f9054906101000a900473ffffffffffffffffffffffffffffffffffffffff1673ffffffffffffffffffffffffffffffffffffffff16145b156115f857808584815181106115dd576115dc61420f565b5b60200260200101818152505082806115f490613eff565b9350505b5f60065f8381526020019081526020015f20600501541415801561168d57508773ffffffffffffffffffffffffffffffffffffffff16600b5f60065f8581526020019081526020015f206005015481526020019081526020015f205f015f9054906101000a900473ffffffffffffffffffffffffffffffffffffffff1673ffffffffffffffffffffffffffffffffffffffff16145b80156116dd57506005808111156116a7576116a6613bad565b5b60065f8381526020019081526020015f2060070160149054906101000a900460ff1660058111156116db576116da613bad565b5b145b1561171157808483815181106116f6576116f561420f565b5b602002602001018181525050818061170d90613eff565b9250505b808061171c90613eff565b915050611526565b5081845280835283839550955050505050915091565b5f8311801561174b57506001548311155b611753575f80fd5b5f61175d336133be565b90505f811161176a575f80fd5b6001600581111561177e5761177d613bad565b5b60065f8681526020019081526020015f2060070160149054906101000a900460ff1660058111156117b2576117b1613bad565b5b146117bb575f80fd5b8060065f8681526020019081526020015f20600401819055508260065f8681526020019081526020015f206007015f6101000a81548173ffffffffffffffffffffffffffffffffffffffff021916908373ffffffffffffffffffffffffffffffffffffffff160217905550600260065f8681526020019081526020015f2060070160146101000a81548160ff0219169083600581111561185e5761185d613bad565b5b021790555060085f8581526020019081526020015f206040518060a001604052803373ffffffffffffffffffffffffffffffffffffffff168152602001600260058111156118af576118ae613bad565b5b81526020014281526020018573ffffffffffffffffffffffffffffffffffffffff16815260200184815250908060018154018082558091505060019003905f5260205f2090600402015f909190919091505f820151815f015f6101000a81548173ffffffffffffffffffffffffffffffffffffffff021916908373ffffffffffffffffffffffffffffffffffffffff1602179055506020820151815f0160146101000a81548160ff0219169083600581111561196e5761196d613bad565b5b0217905550604082015181600101556060820151816002015f6101000a81548173ffffffffffffffffffffffffffffffffffffffff021916908373ffffffffffffffffffffffffffffffffffffffff16021790555060808201518160030155505050505050565b6060805f60015467ffffffffffffffff8111156119f5576119f461367a565b5b604051908082528060200260200182016040528015611a235781602001602082028036833780820191505090505b5090505f60015467ffffffffffffffff811115611a4357611a4261367a565b5b604051908082528060200260200182016040528015611a715781602001602082028036833780820191505090505b5090505f805f600190505b6001548111611c7a575f60065f8381526020019081526020015f206004015414158015611b1a57508773ffffffffffffffffffffffffffffffffffffffff16600a5f60065f8581526020019081526020015f206004015481526020019081526020015f205f015f9054906101000a900473ffffffffffffffffffffffffffffffffffffffff1673ffffffffffffffffffffffffffffffffffffffff16145b15611b4e5780858481518110611b3357611b3261420f565b5b6020026020010181815250508280611b4a90613eff565b9350505b5f60065f8381526020019081526020015f206004015414158015611be357508773ffffffffffffffffffffffffffffffffffffffff16600a5f60065f8581526020019081526020015f206004015481526020019081526020015f205f015f9054906101000a900473ffffffffffffffffffffffffffffffffffffffff1673ffffffffffffffffffffffffffffffffffffffff16145b8015611c335750600580811115611bfd57611bfc613bad565b5b60065f8381526020019081526020015f2060070160149054906101000a900460ff166005811115611c3157611c30613bad565b5b145b15611c675780848381518110611c4c57611c4b61420f565b5b6020026020010181815250508180611c6390613eff565b9250505b8080611c7290613eff565b915050611a7c565b5081845280835283839550955050505050915091565b60035481565b5f83118015611ca757506001548311155b611caf575f80fd5b5f611cb933613246565b90505f8111611cc6575f80fd5b60036005811115611cda57611cd9613bad565b5b60065f8681526020019081526020015f2060070160149054906101000a900460ff166005811115611d0e57611d0d613bad565b5b14611d17575f80fd5b8060065f8681526020019081526020015f20600601819055508260065f8681526020019081526020015f206007015f6101000a81548173ffffffffffffffffffffffffffffffffffffffff021916908373ffffffffffffffffffffffffffffffffffffffff160217905550600460065f8681526020019081526020015f2060070160146101000a81548160ff02191690836005811115611dba57611db9613bad565b5b021790555060085f8581526020019081526020015f206040518060a001604052803373ffffffffffffffffffffffffffffffffffffffff16815260200160046005811115611e0b57611e0a613bad565b5b81526020014281526020018573ffffffffffffffffffffffffffffffffffffffff16815260200184815250908060018154018082558091505060019003905f5260205f2090600402015f909190919091505f820151815f015f6101000a81548173ffffffffffffffffffffffffffffffffffffffff021916908373ffffffffffffffffffffffffffffffffffffffff1602179055506020820151815f0160146101000a81548160ff02191690836005811115611eca57611ec9613bad565b5b0217905550604082015181600101556060820151816002015f6101000a81548173ffffffffffffffffffffffffffffffffffffffff021916908373ffffffffffffffffffffffffffffffffffffffff16021790555060808201518160030155505050505050565b600c602052805f5260405f205f91509050805f015f9054906101000a900473ffffffffffffffffffffffffffffffffffffffff1690806001015490806002018054611f7b90613f73565b80601f0160208091040260200160405190810160405280929190818152602001828054611fa790613f73565b8015611ff25780601f10611fc957610100808354040283529160200191611ff2565b820191905f5260205f20905b815481529060010190602001808311611fd557829003601f168201915b50505050509080600301805461200790613f73565b80601f016020809104026020016040519081016040528092919081815260200182805461203390613f73565b801561207e5780601f106120555761010080835404028352916020019161207e565b820191905f5260205f20905b81548152906001019060200180831161206157829003601f168201915b5050505050905084565b6060805f60015467ffffffffffffffff8111156120a8576120a761367a565b5b6040519080825280602002602001820160405280156120d65781602001602082028036833780820191505090505b5090505f60015467ffffffffffffffff8111156120f6576120f561367a565b5b6040519080825280602002602001820160405280156121245781602001602082028036833780820191505090505b5090505f805f600190505b600154811161232d575f60065f8381526020019081526020015f2060060154141580156121cd57508773ffffffffffffffffffffffffffffffffffffffff16600c5f60065f8581526020019081526020015f206006015481526020019081526020015f205f015f9054906101000a900473ffffffffffffffffffffffffffffffffffffffff1673ffffffffffffffffffffffffffffffffffffffff16145b1561220157808584815181106121e6576121e561420f565b5b60200260200101818152505082806121fd90613eff565b9350505b5f60065f8381526020019081526020015f20600601541415801561229657508773ffffffffffffffffffffffffffffffffffffffff16600c5f60065f8581526020019081526020015f206006015481526020019081526020015f205f015f9054906101000a900473ffffffffffffffffffffffffffffffffffffffff1673ffffffffffffffffffffffffffffffffffffffff16145b80156122e657506005808111156122b0576122af613bad565b5b60065f8381526020019081526020015f2060070160149054906101000a900460ff1660058111156122e4576122e3613bad565b5b145b1561231a57808483815181106122ff576122fe61420f565b5b602002602001018181525050818061231690613eff565b9250505b808061232590613eff565b91505061212f565b5081845280835283839550955050505050915091565b5f8054906101000a900473ffffffffffffffffffffffffffffffffffffffff1673ffffffffffffffffffffffffffffffffffffffff163373ffffffffffffffffffffffffffffffffffffffff1614612399575f80fd5b60035f8154809291906123ab90613eff565b919050555060405180608001604052808473ffffffffffffffffffffffffffffffffffffffff168152602001600354815260200183815260200182815250600a5f60035481526020019081526020015f205f820151815f015f6101000a81548173ffffffffffffffffffffffffffffffffffffffff021916908373ffffffffffffffffffffffffffffffffffffffff16021790555060208201518160010155604082015181600201908161245f9190614140565b5060608201518160030190816124759190614140565b50905050505050565b6006602052805f5260405f205f91509050805f0154908060010180546124a390613f73565b80601f01602080910402602001604051908101604052809291908181526020018280546124cf90613f73565b801561251a5780601f106124f15761010080835404028352916020019161251a565b820191905f5260205f20905b8154815290600101906020018083116124fd57829003601f168201915b50505050509080600201805461252f90613f73565b80601f016020809104026020016040519081016040528092919081815260200182805461255b90613f73565b80156125a65780601f1061257d576101008083540402835291602001916125a6565b820191905f5260205f20905b81548152906001019060200180831161258957829003601f168201915b505050505090806003015490806004015490806005015490806006015490806007015f9054906101000a900473ffffffffffffffffffffffffffffffffffffffff16908060070160149054906101000a900460ff16905089565b60055481565b6008602052815f5260405f20818154811061261f575f80fd5b905f5260205f2090600402015f9150915050805f015f9054906101000a900473ffffffffffffffffffffffffffffffffffffffff1690805f0160149054906101000a900460ff1690806001015490806002015f9054906101000a900473ffffffffffffffffffffffffffffffffffffffff16908060030154905085565b5f8054906101000a900473ffffffffffffffffffffffffffffffffffffffff1673ffffffffffffffffffffffffffffffffffffffff163373ffffffffffffffffffffffffffffffffffffffff16146126f2575f80fd5b60055f81548092919061270490613eff565b919050555060405180608001604052808473ffffffffffffffffffffffffffffffffffffffff168152602001600554815260200183815260200182815250600c5f60055481526020019081526020015f205f820151815f015f6101000a81548173ffffffffffffffffffffffffffffffffffffffff021916908373ffffffffffffffffffffffffffffffffffffffff1602179055506020820151816001015560408201518160020190816127b89190614140565b5060608201518160030190816127ce9190614140565b50905050505050565b60605f821180156127ea57506001548211155b6127f2575f80fd5b60085f8381526020019081526020015f20805480602002602001604051908101604052809291908181526020015f905b82821015612949578382905f5260205f2090600402016040518060a00160405290815f82015f9054906101000a900473ffffffffffffffffffffffffffffffffffffffff1673ffffffffffffffffffffffffffffffffffffffff1673ffffffffffffffffffffffffffffffffffffffff1681526020015f820160149054906101000a900460ff1660058111156128bb576128ba613bad565b5b60058111156128cd576128cc613bad565b5b815260200160018201548152602001600282015f9054906101000a900473ffffffffffffffffffffffffffffffffffffffff1673ffffffffffffffffffffffffffffffffffffffff1673ffffffffffffffffffffffffffffffffffffffff16815260200160038201548152505081526020019060010190612822565b505050509050919050565b60015481565b5f8054906101000a900473ffffffffffffffffffffffffffffffffffffffff1681565b5f8311801561298e57506001548311155b612996575f80fd5b5f6129a03361347a565b90505f81116129ad575f80fd5b5f60058111156129c0576129bf613bad565b5b60065f8681526020019081526020015f2060070160149054906101000a900460ff1660058111156129f4576129f3613bad565b5b146129fd575f80fd5b8060065f8681526020019081526020015f20600301819055508260065f8681526020019081526020015f206007015f6101000a81548173ffffffffffffffffffffffffffffffffffffffff021916908373ffffffffffffffffffffffffffffffffffffffff160217905550600160065f8681526020019081526020015f2060070160146101000a81548160ff02191690836005811115612aa057612a9f613bad565b5b021790555060085f8581526020019081526020015f206040518060a001604052803373ffffffffffffffffffffffffffffffffffffffff16815260200160016005811115612af157612af0613bad565b5b81526020014281526020018573ffffffffffffffffffffffffffffffffffffffff16815260200184815250908060018154018082558091505060019003905f5260205f2090600402015f909190919091505f820151815f015f6101000a81548173ffffffffffffffffffffffffffffffffffffffff021916908373ffffffffffffffffffffffffffffffffffffffff1602179055506020820151815f0160146101000a81548160ff02191690836005811115612bb057612baf613bad565b5b0217905550604082015181600101556060820151816002015f6101000a81548173ffffffffffffffffffffffffffffffffffffffff021916908373ffffffffffffffffffffffffffffffffffffffff16021790555060808201518160030155505050505050565b600a602052805f5260405f205f91509050805f015f9054906101000a900473ffffffffffffffffffffffffffffffffffffffff1690806001015490806002018054612c6190613f73565b80601f0160208091040260200160405190810160405280929190818152602001828054612c8d90613f73565b8015612cd85780601f10612caf57610100808354040283529160200191612cd8565b820191905f5260205f20905b815481529060010190602001808311612cbb57829003601f168201915b505050505090806003018054612ced90613f73565b80601f0160208091040260200160405190810160405280929190818152602001828054612d1990613f73565b8015612d645780601f10612d3b57610100808354040283529160200191612d64565b820191905f5260205f20905b815481529060010190602001808311612d4757829003601f168201915b5050505050905084565b60025481565b60605f60015411612d83575f80fd5b5f6005811115612d9657612d95613bad565b5b60065f8481526020019081526020015f2060070160149054906101000a900460ff166005811115612dca57612dc9613bad565b5b03612e0c576040518060400160405280601081526020017f4d65646963696e65204f7264657265640000000000000000000000000000000081525090506130be565b60016005811115612e2057612e1f613bad565b5b60065f8481526020019081526020015f2060070160149054906101000a900460ff166005811115612e5457612e53613bad565b5b03612e96576040518060400160405280601981526020017f526177204d6174657269616c20537570706c792053746167650000000000000081525090506130be565b60026005811115612eaa57612ea9613bad565b5b60065f8481526020019081526020015f2060070160149054906101000a900460ff166005811115612ede57612edd613bad565b5b03612f20576040518060400160405280601381526020017f4d616e75666163747572696e672053746167650000000000000000000000000081525090506130be565b60036005811115612f3457612f33613bad565b5b60065f8481526020019081526020015f2060070160149054906101000a900460ff166005811115612f6857612f67613bad565b5b03612faa576040518060400160405280601281526020017f446973747269627574696f6e205374616765000000000000000000000000000081525090506130be565b60046005811115612fbe57612fbd613bad565b5b60065f8481526020019081526020015f2060070160149054906101000a900460ff166005811115612ff257612ff1613bad565b5b03613034576040518060400160405280600c81526020017f52657461696c205374616765000000000000000000000000000000000000000081525090506130be565b60058081111561304757613046613bad565b5b60065f8481526020019081526020015f2060070160149054906101000a900460ff16600581111561307b5761307a613bad565b5b036130bd576040518060400160405280600d81526020017f4d65646963696e6520536f6c640000000000000000000000000000000000000081525090506130be565b5b919050565b6009602052805f5260405f205f91509050805f015f9054906101000a900473ffffffffffffffffffffffffffffffffffffffff169080600101549080600201805461310d90613f73565b80601f016020809104026020016040519081016040528092919081815260200182805461313990613f73565b80156131845780601f1061315b57610100808354040283529160200191613184565b820191905f5260205f20905b81548152906001019060200180831161316757829003601f168201915b50505050509080600301805461319990613f73565b80601f01602080910402602001604051908101604052809291908181526020018280546131c590613f73565b80156132105780601f106131e757610100808354040283529160200191613210565b820191905f5260205f20905b8154815290600101906020018083116131f357829003601f168201915b5050505050905084565b6007602052805f5260405f205f91509050805f0154908060010154908060020154908060030154905084565b5f8060055411613254575f80fd5b5f600190505b60055481116132f8578273ffffffffffffffffffffffffffffffffffffffff16600c5f8381526020019081526020015f205f015f9054906101000a900473ffffffffffffffffffffffffffffffffffffffff1673ffffffffffffffffffffffffffffffffffffffff16036132e557600c5f8281526020019081526020015f20600101549150506132fd565b80806132f090613eff565b91505061325a565b505f90505b919050565b5f8060045411613310575f80fd5b5f600190505b60045481116133b4578273ffffffffffffffffffffffffffffffffffffffff16600b5f8381526020019081526020015f205f015f9054906101000a900473ffffffffffffffffffffffffffffffffffffffff1673ffffffffffffffffffffffffffffffffffffffff16036133a157600b5f8281526020019081526020015f20600101549150506133b9565b80806133ac90613eff565b915050613316565b505f90505b919050565b5f80600354116133cc575f80fd5b5f600190505b6003548111613470578273ffffffffffffffffffffffffffffffffffffffff16600a5f8381526020019081526020015f205f015f9054906101000a900473ffffffffffffffffffffffffffffffffffffffff1673ffffffffffffffffffffffffffffffffffffffff160361345d57600a5f8281526020019081526020015f2060010154915050613475565b808061346890613eff565b9150506133d2565b505f90505b919050565b5f8060025411613488575f80fd5b5f600190505b600254811161352c578273ffffffffffffffffffffffffffffffffffffffff1660095f8381526020019081526020015f205f015f9054906101000a900473ffffffffffffffffffffffffffffffffffffffff1673ffffffffffffffffffffffffffffffffffffffff16036135195760095f8281526020019081526020015f2060010154915050613531565b808061352490613eff565b91505061348e565b505f90505b919050565b5f604051905090565b5f80fd5b5f80fd5b5f819050919050565b61355981613547565b8114613563575f80fd5b50565b5f8135905061357481613550565b92915050565b5f80604083850312156135905761358f61353f565b5b5f61359d85828601613566565b92505060206135ae85828601613566565b9150509250929050565b5f73ffffffffffffffffffffffffffffffffffffffff82169050919050565b5f6135e1826135b8565b9050919050565b6135f1816135d7565b81146135fb575f80fd5b50565b5f8135905061360c816135e8565b92915050565b5f805f606084860312156136295761362861353f565b5b5f61363686828701613566565b9350506020613647868287016135fe565b925050604061365886828701613566565b9150509250925092565b5f80fd5b5f80fd5b5f601f19601f8301169050919050565b7f4e487b71000000000000000000000000000000000000000000000000000000005f52604160045260245ffd5b6136b08261366a565b810181811067ffffffffffffffff821117156136cf576136ce61367a565b5b80604052505050565b5f6136e1613536565b90506136ed82826136a7565b919050565b5f67ffffffffffffffff82111561370c5761370b61367a565b5b6137158261366a565b9050602081019050919050565b828183375f83830152505050565b5f61374261373d846136f2565b6136d8565b90508281526020810184848401111561375e5761375d613666565b5b613769848285613722565b509392505050565b5f82601f83011261378557613784613662565b5b8135613795848260208601613730565b91505092915050565b5f805f805f8060c087890312156137b8576137b761353f565b5b5f87013567ffffffffffffffff8111156137d5576137d4613543565b5b6137e189828a01613771565b965050602087013567ffffffffffffffff81111561380257613801613543565b5b61380e89828a01613771565b955050604061381f89828a01613566565b945050606061383089828a01613566565b935050608061384189828a01613566565b92505060a061385289828a01613566565b9150509295509295509295565b5f805f606084860312156138765761387561353f565b5b5f613883868287016135fe565b935050602084013567ffffffffffffffff8111156138a4576138a3613543565b5b6138b086828701613771565b925050604084013567ffffffffffffffff8111156138d1576138d0613543565b5b6138dd86828701613771565b9150509250925092565b5f602082840312156138fc576138fb61353f565b5b5f61390984828501613566565b91505092915050565b61391b816135d7565b82525050565b61392a81613547565b82525050565b5f81519050919050565b5f82825260208201905092915050565b5f5b8381101561396757808201518184015260208101905061394c565b5f8484015250505050565b5f61397c82613930565b613986818561393a565b935061399681856020860161394a565b61399f8161366a565b840191505092915050565b5f6080820190506139bd5f830187613912565b6139ca6020830186613921565b81810360408301526139dc8185613972565b905081810360608301526139f08184613972565b905095945050505050565b5f602082019050613a0e5f830184613921565b92915050565b5f60e0820190508181035f830152613a2c818a613972565b90508181036020830152613a408189613972565b9050613a4f6040830188613921565b613a5c6060830187613921565b613a696080830186613921565b613a7660a0830185613921565b81810360c0830152613a888184613972565b905098975050505050505050565b5f60208284031215613aab57613aaa61353f565b5b5f613ab8848285016135fe565b91505092915050565b5f81519050919050565b5f82825260208201905092915050565b5f819050602082019050919050565b613af381613547565b82525050565b5f613b048383613aea565b60208301905092915050565b5f602082019050919050565b5f613b2682613ac1565b613b308185613acb565b9350613b3b83613adb565b805f5b83811015613b6b578151613b528882613af9565b9750613b5d83613b10565b925050600181019050613b3e565b5085935050505092915050565b5f6040820190508181035f830152613b908185613b1c565b90508181036020830152613ba48184613b1c565b90509392505050565b7f4e487b71000000000000000000000000000000000000000000000000000000005f52602160045260245ffd5b60068110613beb57613bea613bad565b5b50565b5f819050613bfb82613bda565b919050565b5f613c0a82613bee565b9050919050565b613c1a81613c00565b82525050565b5f61012082019050613c345f83018c613921565b8181036020830152613c46818b613972565b90508181036040830152613c5a818a613972565b9050613c696060830189613921565b613c766080830188613921565b613c8360a0830187613921565b613c9060c0830186613921565b613c9d60e0830185613912565b613cab610100830184613c11565b9a9950505050505050505050565b5f60a082019050613ccc5f830188613912565b613cd96020830187613c11565b613ce66040830186613921565b613cf36060830185613912565b613d006080830184613921565b9695505050505050565b5f81519050919050565b5f82825260208201905092915050565b5f819050602082019050919050565b613d3c816135d7565b82525050565b613d4b81613c00565b82525050565b60a082015f820151613d655f850182613d33565b506020820151613d786020850182613d42565b506040820151613d8b6040850182613aea565b506060820151613d9e6060850182613d33565b506080820151613db16080850182613aea565b50505050565b5f613dc28383613d51565b60a08301905092915050565b5f602082019050919050565b5f613de482613d0a565b613dee8185613d14565b9350613df983613d24565b805f5b83811015613e29578151613e108882613db7565b9750613e1b83613dce565b925050600181019050613dfc565b5085935050505092915050565b5f6020820190508181035f830152613e4e8184613dda565b905092915050565b5f602082019050613e695f830184613912565b92915050565b5f6020820190508181035f830152613e878184613972565b905092915050565b5f608082019050613ea25f830187613921565b613eaf6020830186613921565b613ebc6040830185613921565b613ec96060830184613921565b95945050505050565b7f4e487b71000000000000000000000000000000000000000000000000000000005f52601160045260245ffd5b5f613f0982613547565b91507fffffffffffffffffffffffffffffffffffffffffffffffffffffffffffffffff8203613f3b57613f3a613ed2565b5b600182019050919050565b7f4e487b71000000000000000000000000000000000000000000000000000000005f52602260045260245ffd5b5f6002820490506001821680613f8a57607f821691505b602082108103613f9d57613f9c613f46565b5b50919050565b5f819050815f5260205f209050919050565b5f6020601f8301049050919050565b5f82821b905092915050565b5f60088302613fff7fffffffffffffffffffffffffffffffffffffffffffffffffffffffffffffffff82613fc4565b6140098683613fc4565b95508019841693508086168417925050509392505050565b5f819050919050565b5f61404461403f61403a84613547565b614021565b613547565b9050919050565b5f819050919050565b61405d8361402a565b6140716140698261404b565b848454613fd0565b825550505050565b5f90565b614085614079565b614090818484614054565b505050565b5b818110156140b3576140a85f8261407d565b600181019050614096565b5050565b601f8211156140f8576140c981613fa3565b6140d284613fb5565b810160208510156140e1578190505b6140f56140ed85613fb5565b830182614095565b50505b505050565b5f82821c905092915050565b5f6141185f19846008026140fd565b1980831691505092915050565b5f6141308383614109565b9150826002028217905092915050565b61414982613930565b67ffffffffffffffff8111156141625761416161367a565b5b61416c8254613f73565b6141778282856140b7565b5f60209050601f8311600181146141a8575f8415614196578287015190505b6141a08582614125565b865550614207565b601f1984166141b686613fa3565b5f5b828110156141dd578489015182556001820191506020850194506020810190506141b8565b868310156141fa57848901516141f6601f891682614109565b8355505b6001600288020188555050505b505050505050565b7f4e487b71000000000000000000000000000000000000000000000000000000005f52603260045260245ffdfea2646970667358221220fc9f0bb8e84a9d48a822de64f13049c104d27842d176fddf15269f6d023ead6064736f6c63430008150033",
  "immutableReferences": {},
  "source": "// SPDX-License-Identifier: MIT\r\npragma solidity >=0.4.22 <0.9.0;\r\n\r\npragma experimental ABIEncoderV2;\r\n\r\ncontract SupplyChain {\r\n    address public Owner;\r\n\r\n    constructor() public {\r\n        Owner = msg.sender;\r\n    }\r\n\r\n    modifier onlyByOwner() {\r\n        require(msg.sender == Owner);\r\n        _;\r\n    }\r\n\r\n    enum STAGE {\r\n        Init,\r\n        RawMaterialSupply,\r\n        Manufacture,\r\n        Distribution,\r\n        Retail,\r\n        Sold\r\n    }\r\n\r\n    uint256 public medicineCtr = 0;\r\n    uint256 public rmsCtr = 0;\r\n    uint256 public manCtr = 0;\r\n    uint256 public disCtr = 0;\r\n    uint256 public retCtr = 0;\r\n\r\n    struct medicineBasic {\r\n        uint256 id;\r\n        string name;\r\n        string description;\r\n        uint256 RMSid;\r\n        uint256 MANid;\r\n        uint256 DISid;\r\n        uint256 RETid;\r\n        address receiver;\r\n        STAGE stage;\r\n    }\r\n\r\n    struct medicineDetails {\r\n        uint256 quantity;\r\n        uint256 price;\r\n        uint256 manufacturingDate;\r\n        uint256 expiryDate;\r\n    }\r\n\r\n    mapping(uint256 => medicineBasic) public MedicineStockBasic;\r\n    mapping(uint256 => medicineDetails) public MedicineStockDetails;\r\n    mapping(uint256 => ProcessingEntry[]) public MedicineProcessingHistory;\r\n\r\n    struct rawMaterialSupplier {\r\n        address addr;\r\n        uint256 id;\r\n        string name;\r\n        string place;\r\n    }\r\n\r\n    mapping(uint256 => rawMaterialSupplier) public RMS;\r\n\r\n    struct manufacturer {\r\n        address addr;\r\n        uint256 id;\r\n        string name;\r\n        string place;\r\n    }\r\n\r\n    mapping(uint256 => manufacturer) public MAN;\r\n\r\n    struct distributor {\r\n        address addr;\r\n        uint256 id;\r\n        string name;\r\n        string place;\r\n    }\r\n\r\n    mapping(uint256 => distributor) public DIS;\r\n\r\n    struct retailer {\r\n        address addr;\r\n        uint256 id;\r\n        string name;\r\n        string place;\r\n    }\r\n\r\n    mapping(uint256 => retailer) public RET;\r\n\r\n    struct ProcessingEntry {\r\n        address user;\r\n        STAGE stage;\r\n        uint256 timestamp;\r\n        address receiver;\r\n        uint256 quantity;\r\n    }\r\n\r\n    function showStage(uint256 _medicineID) public view returns (string memory) {\r\n        require(medicineCtr > 0);\r\n        if (MedicineStockBasic[_medicineID].stage == STAGE.Init) {\r\n            return \"Medicine Ordered\";\r\n        }\r\n        if (MedicineStockBasic[_medicineID].stage == STAGE.RawMaterialSupply) {\r\n            return \"Raw Material Supply Stage\";\r\n        }\r\n        if (MedicineStockBasic[_medicineID].stage == STAGE.Manufacture) {\r\n            return \"Manufacturing Stage\";\r\n        }\r\n        if (MedicineStockBasic[_medicineID].stage == STAGE.Distribution) {\r\n            return \"Distribution Stage\";\r\n        }\r\n        if (MedicineStockBasic[_medicineID].stage == STAGE.Retail) {\r\n            return \"Retail Stage\";\r\n        }\r\n        if (MedicineStockBasic[_medicineID].stage == STAGE.Sold) {\r\n            return \"Medicine Sold\";\r\n        }\r\n    }\r\n\r\nfunction getManufacturerMedicine(address _manufacturer) public view returns (uint256[] memory, uint256[] memory) {\r\n    uint256[] memory medicineList = new uint256[](medicineCtr);\r\n    uint256[] memory soldMedicineList = new uint256[](medicineCtr);\r\n    uint256 medicineCount = 0;\r\n    uint256 soldMedicineCount = 0;\r\n\r\n    for (uint256 i = 1; i <= medicineCtr; i++) {\r\n        if (MedicineStockBasic[i].MANid != 0 && MAN[MedicineStockBasic[i].MANid].addr == _manufacturer) {\r\n            medicineList[medicineCount] = i;\r\n            medicineCount++;\r\n        }\r\n        if (MedicineStockBasic[i].MANid != 0 && MAN[MedicineStockBasic[i].MANid].addr == _manufacturer && MedicineStockBasic[i].stage == STAGE.Sold) {\r\n            soldMedicineList[soldMedicineCount] = i;\r\n            soldMedicineCount++;\r\n        }\r\n    }\r\n\r\n    // Resize the arrays to the actual counts\r\n    assembly {\r\n        mstore(medicineList, medicineCount)\r\n        mstore(soldMedicineList, soldMedicineCount)\r\n    }\r\n\r\n    return (medicineList, soldMedicineList);\r\n}\r\n\r\n\r\n    function getDistributorMedicine(address _distributor) public view returns (uint256[] memory, uint256[] memory) {\r\n    uint256[] memory medicineList = new uint256[](medicineCtr);\r\n    uint256[] memory soldMedicineList = new uint256[](medicineCtr);\r\n    uint256 medicineCount = 0;\r\n    uint256 soldMedicineCount = 0;\r\n\r\n    for (uint256 i = 1; i <= medicineCtr; i++) {\r\n        if (MedicineStockBasic[i].DISid != 0 && DIS[MedicineStockBasic[i].DISid].addr == _distributor) {\r\n            medicineList[medicineCount] = i;\r\n            medicineCount++;\r\n        }\r\n        if (MedicineStockBasic[i].DISid != 0 && DIS[MedicineStockBasic[i].DISid].addr == _distributor && MedicineStockBasic[i].stage == STAGE.Sold) {\r\n            soldMedicineList[soldMedicineCount] = i;\r\n            soldMedicineCount++;\r\n        }\r\n    }\r\n\r\n    // Resize the arrays to the actual counts\r\n    assembly {\r\n        mstore(medicineList, medicineCount)\r\n        mstore(soldMedicineList, soldMedicineCount)\r\n    }\r\n\r\n    return (medicineList, soldMedicineList);\r\n}\r\n\r\n    function getRetailerMedicine(address _retailer) public view returns (uint256[] memory, uint256[] memory) {\r\n    uint256[] memory medicineList = new uint256[](medicineCtr);\r\n    uint256[] memory soldMedicineList = new uint256[](medicineCtr);\r\n    uint256 medicineCount = 0;\r\n    uint256 soldMedicineCount = 0;\r\n\r\n    for (uint256 i = 1; i <= medicineCtr; i++) {\r\n        if (MedicineStockBasic[i].RETid != 0 && RET[MedicineStockBasic[i].RETid].addr == _retailer) {\r\n            medicineList[medicineCount] = i;\r\n            medicineCount++;\r\n        }\r\n        if (MedicineStockBasic[i].RETid != 0 && RET[MedicineStockBasic[i].RETid].addr == _retailer && MedicineStockBasic[i].stage == STAGE.Sold) {\r\n            soldMedicineList[soldMedicineCount] = i;\r\n            soldMedicineCount++;\r\n        }\r\n    }\r\n\r\n    // Resize the arrays to the actual counts\r\n    assembly {\r\n        mstore(medicineList, medicineCount)\r\n        mstore(soldMedicineList, soldMedicineCount)\r\n    }\r\n\r\n    return (medicineList, soldMedicineList);\r\n}\r\n    function getMedicineDetails(uint256 _medicineID) public view returns (\r\n        string memory name,\r\n        string memory description,\r\n        uint256 quantity,\r\n        uint256 price,\r\n        uint256 manufacturingDate,\r\n        uint256 expiryDate,\r\n        string memory currentStage\r\n    ) {\r\n        require(_medicineID > 0 && _medicineID <= medicineCtr);\r\n        name = MedicineStockBasic[_medicineID].name;\r\n        description = MedicineStockBasic[_medicineID].description;\r\n        quantity = MedicineStockDetails[_medicineID].quantity;\r\n        price = MedicineStockDetails[_medicineID].price;\r\n        manufacturingDate = MedicineStockDetails[_medicineID].manufacturingDate;\r\n        expiryDate = MedicineStockDetails[_medicineID].expiryDate;\r\n        currentStage = showStage(_medicineID);\r\n    }\r\n\r\n    function addRMS(address _address, string memory _name, string memory _place) public onlyByOwner() {\r\n        rmsCtr++;\r\n        RMS[rmsCtr] = rawMaterialSupplier(_address, rmsCtr, _name, _place);\r\n    }\r\n\r\n    function addManufacturer(address _address, string memory _name, string memory _place) public onlyByOwner() {\r\n        manCtr++;\r\n        MAN[manCtr] = manufacturer(_address, manCtr, _name, _place);\r\n    }\r\n\r\n    function addDistributor(address _address, string memory _name, string memory _place) public onlyByOwner() {\r\n        disCtr++;\r\n        DIS[disCtr] = distributor(_address, disCtr, _name, _place);\r\n    }\r\n\r\n    function addRetailer(address _address, string memory _name, string memory _place) public onlyByOwner() {\r\n        retCtr++;\r\n        RET[retCtr] = retailer(_address, retCtr, _name, _place);\r\n    }\r\n\r\n    function RMSsupply(uint256 _medicineID, address _receiver,uint256 _quantity) public {\r\n        require(_medicineID > 0 && _medicineID <= medicineCtr);\r\n        uint256 _id = findRMS(msg.sender);\r\n        require(_id > 0);\r\n        require(MedicineStockBasic[_medicineID].stage == STAGE.Init);\r\n        MedicineStockBasic[_medicineID].RMSid = _id;\r\n        MedicineStockBasic[_medicineID].receiver = _receiver;\r\n        MedicineStockBasic[_medicineID].stage = STAGE.RawMaterialSupply;\r\n        MedicineProcessingHistory[_medicineID].push(\r\n            ProcessingEntry(msg.sender, STAGE.RawMaterialSupply, block.timestamp, _receiver,_quantity)\r\n        );\r\n    }\r\n\r\n    function findRMS(address _address) private view returns (uint256) {\r\n        require(rmsCtr > 0);\r\n        for (uint256 i = 1; i <= rmsCtr; i++) {\r\n            if (RMS[i].addr == _address) return RMS[i].id;\r\n        }\r\n        return 0;\r\n    }\r\n\r\n    function Manufacturing(uint256 _medicineID, address _receiver,uint256 _quantity) public {\r\n        require(_medicineID > 0 && _medicineID <= medicineCtr);\r\n        uint256 _id = findMAN(msg.sender);\r\n        require(_id > 0);\r\n        require(MedicineStockBasic[_medicineID].stage == STAGE.RawMaterialSupply);\r\n        MedicineStockBasic[_medicineID].MANid = _id;\r\n        MedicineStockBasic[_medicineID].receiver = _receiver;\r\n        MedicineStockBasic[_medicineID].stage = STAGE.Manufacture;\r\n        MedicineProcessingHistory[_medicineID].push(\r\n            ProcessingEntry(msg.sender, STAGE.Manufacture, block.timestamp, _receiver, _quantity)\r\n        );\r\n    }\r\n\r\n    function findMAN(address _address) private view returns (uint256) {\r\n        require(manCtr > 0);\r\n        for (uint256 i = 1; i <= manCtr; i++) {\r\n            if (MAN[i].addr == _address) return MAN[i].id;\r\n        }\r\n        return 0;\r\n    }\r\n\r\n    function Distribute(uint256 _medicineID, address _receiver,uint256 _quantity) public {\r\n        require(_medicineID > 0 && _medicineID <= medicineCtr);\r\n        uint256 _id = findDIS(msg.sender);\r\n        require(_id > 0);\r\n        require(MedicineStockBasic[_medicineID].stage == STAGE.Manufacture);\r\n        MedicineStockBasic[_medicineID].DISid = _id;\r\n        MedicineStockBasic[_medicineID].receiver = _receiver;\r\n        MedicineStockBasic[_medicineID].stage = STAGE.Distribution;\r\n        MedicineProcessingHistory[_medicineID].push(\r\n            ProcessingEntry(msg.sender, STAGE.Distribution, block.timestamp, _receiver , _quantity)\r\n        );\r\n    }\r\n\r\n    function findDIS(address _address) private view returns (uint256) {\r\n        require(disCtr > 0);\r\n        for (uint256 i = 1; i <= disCtr; i++) {\r\n            if (DIS[i].addr == _address) return DIS[i].id;\r\n        }\r\n        return 0;\r\n    }\r\n\r\n    function Retail(uint256 _medicineID, address _receiver,uint256 _quantity) public {\r\n        require(_medicineID > 0 && _medicineID <= medicineCtr);\r\n        uint256 _id = findRET(msg.sender);\r\n        require(_id > 0);\r\n        require(MedicineStockBasic[_medicineID].stage == STAGE.Distribution);\r\n        MedicineStockBasic[_medicineID].RETid = _id;\r\n        MedicineStockBasic[_medicineID].receiver = _receiver;\r\n        MedicineStockBasic[_medicineID].stage = STAGE.Retail;\r\n        MedicineProcessingHistory[_medicineID].push(\r\n            ProcessingEntry(msg.sender, STAGE.Retail, block.timestamp, _receiver, _quantity)\r\n        );\r\n    }\r\n\r\n    function findRET(address _address) private view returns (uint256) {\r\n        require(retCtr > 0);\r\n        for (uint256 i = 1; i <= retCtr; i++) {\r\n            if (RET[i].addr == _address) return RET[i].id;\r\n        }\r\n        return 0;\r\n    }\r\n\r\n    function sold(uint256 _medicineID,uint256 _quantity) public {\r\n        require(_medicineID > 0 && _medicineID <= medicineCtr);\r\n        uint256 _id = findRET(msg.sender);\r\n        require(_id > 0);\r\n        require(_id == MedicineStockBasic[_medicineID].RETid);\r\n        require(MedicineStockBasic[_medicineID].stage == STAGE.Retail);\r\n        MedicineStockBasic[_medicineID].stage = STAGE.Sold;\r\n        MedicineProcessingHistory[_medicineID].push(\r\n            ProcessingEntry(msg.sender, STAGE.Sold, block.timestamp, address(0), _quantity)\r\n        );\r\n    }\r\n\r\n    function addMedicine(\r\n        string memory _name,\r\n        string memory _description,\r\n        uint256 _quantity,\r\n        uint256 _price,\r\n        uint256 _manufacturingDate,\r\n        uint256 _expiryDate\r\n    ) public onlyByOwner() {\r\n        require((rmsCtr > 0) && (manCtr > 0) && (disCtr > 0) && (retCtr > 0));\r\n        medicineCtr++;\r\n        MedicineStockBasic[medicineCtr] = medicineBasic(\r\n            medicineCtr,\r\n            _name,\r\n            _description,\r\n            0,\r\n            0,\r\n            0,\r\n            0,\r\n            address(0),\r\n            STAGE.Init\r\n        );\r\n        MedicineStockDetails[medicineCtr] = medicineDetails(\r\n            _quantity,\r\n            _price,\r\n            _manufacturingDate,\r\n            _expiryDate\r\n        );\r\n        MedicineProcessingHistory[medicineCtr].push(\r\n            ProcessingEntry(msg.sender, STAGE.Init, block.timestamp, address(0), _quantity)\r\n        );\r\n    }\r\n\r\n    function getMedicineProcessingHistory(uint256 _medicineID) public view returns (ProcessingEntry[] memory) {\r\n        require(_medicineID > 0 && _medicineID <= medicineCtr);\r\n        return MedicineProcessingHistory[_medicineID];\r\n    }\r\n}\r\n",
  "sourcePath": "C:\\nextjs\\capstoneproj\\supplychain\\truffle\\contracts\\SupplyChain.sol",
  "compiler": {
    "name": "solc",
    "version": "0.8.21+commit.d9974bed.Emscripten.clang"
  },
  "schemaVersion": "3.4.16",
  "updatedAt": "2023-10-25T16:34:01.597Z",
  "devdoc": {
    "kind": "dev",
    "methods": {},
    "version": 1
  },
  "userdoc": {
    "kind": "user",
    "methods": {},
    "version": 1
  }
}